:100000000C94E1000C9409010C9409010C94090171
:100010000C9409010C9409010C9409010C943C0EF8
:100020000C9409010C9409010C9409010C94360DEF
:100030000C9409010C9409010C9409010C94090118
:100040000C94F20D0C9409010C94BE0E0C94980EB5
:100050000C9409010C9409010C9409010C940901F8
:100060000C94170C0C94090100407A10F35A00A06C
:10007000724E18090010A5D4E80000E87648170071
:1000800000E40B54020000CA9A3B000000E1F505B1
:10009000000080969800000040420F000000A086FB
:1000A00001000000102700000000E803000000002D
:1000B0006400000000000A000000000001000000D1
:1000C00000002C76D888DC674F0823DFC1DFAE59EB
:1000D000E1B1B796E5E3E453C63AE651997696E87E
:1000E000E6C28426EB898C9B62ED407C6FFCEFBC02
:1000F0009C9F40F2BAA56FA5F490055A2AF75C932D
:100100006B6CF9676DC11BFCE0E40D47FEF520E662
:10011000B500D0ED902E0300943577050080841E45
:10012000080000204E0A000000C80C333333330FA0
:10013000986E12831141EF8D2114893BE65516CF3D
:10014000FEE6DB18D1844B381BF77C1D901DA4BB49
:10015000E424203284725E228100C9F124ECA1E5FE
:100160003D270200000000240027002A00000000B4
:1001700000250028002B0000000000230026002995
:100180000004040404040404040202020202020340
:10019000030303030301020408102040800102044A
:1001A00008102001020408102000000008000201CD
:1001B0000000030407000000000000000000F00E33
:1001C0001A1611241FBECFEFD8E0DEBFCDBF12E05C
:1001D000A0E0B1E0E0E6FBE302C005900D92AC3791
:1001E000B107D9F724E0ACE7B2E001C01D92A53613
:1001F000B207E1F710E0C0EED0E004C02197FE01A5
:100200000E94851ACF3DD107C9F70E948D0F0C942B
:10021000A31D0C940000CF92DF92EF92FF92DC01BD
:10022000A03282E0B807D4F5A53BB10514F0A4EBE9
:10023000B0E040913E0428E830E0241B310947FD3E
:100240003395220F331F220F331F6901330FEE083E
:10025000FF0840913F0428E532E0241B310947FDA7
:100260003395220F331F220F331F032E000C440B34
:10027000550B2C193D094E095F09B7FF02C0B0E0CC
:10028000A0E00E94FA1924EB30E040E050E00E9428
:10029000D019C20ED31EE41EF51ED601E0913D0416
:1002A000EC3080F520913E0488E890E0821B9109B3
:1002B00027FD9395880F991F880F991FA817B907D5
:1002C00084F020913F0488E592E0821B910927FD8C
:1002D0009395880F991F880F991FA817B9070CF4D9
:1002E000CD010297880F991F4FB7F8942E2F30E059
:1002F000F901EE0FFF1FE20FF31FE85EFB4F928341
:1003000081834FBFFF90EF90DF90CF9008952091B1
:100310001603260F3327331F21323105ECF42091C9
:100320003C03FC0190E080E0243069F082E0089515
:10033000A09116032191AC014C505D4FA40FB52F35
:10034000B11D2C930196861798F380911603680FC0
:100350006093160380E0089581E00895089508955C
:100360000895E091EB028091EA02E81730F4F0E0A2
:10037000E653FD4F808190E008958FEF9FEF089541
:100380009091EB028091EA022FEF3FEF981748F42B
:10039000E92FF0E0E653FD4F208130E09F5F90931E
:1003A000EB02C90108958091EA029091EB02891B4A
:1003B000990B0895CF92DF92EF92FF920F931F93C4
:1003C000CF93DF937C01CB018A012091C9022223C4
:1003D00089F0EB016B01C40ED51ECC15DD0569F06B
:1003E0006991D701ED91FC910190F081E02DC70159
:1003F0000995F3CF642F0E948701C801DF91CF9147
:100400001F910F91FF90EF90DF90CF900895CF93C1
:10041000DF931F92CDB7DEB769832091C9022223F3
:10042000F9F02091EC02203258F021E030E0FC019C
:100430003383228390E080E00F90DF91CF91089585
:100440008091ED02E82FF0E0E755FD4F9981908310
:100450008F5F8093ED028093EC0281E090E0ECCF1F
:1004600061E0CE0101960E948701F7CF833081F0D1
:1004700028F4813099F08230A9F008958730A9F0EE
:100480008830C9F08430B1F4809180008F7D03C042
:10049000809180008F7780938000089584B58F7756
:1004A00084BD089584B58F7DFBCF8091B0008F7798
:1004B0008093B00008958091B0008F7DF9CFCF93E5
:1004C000DF93282F30E0F901E755FE4F8491F901C1
:1004D000EB56FE4FD491F901EF57FE4FC491CC2358
:1004E000A1F081110E943602EC2FF0E0EE0FFF1F09
:1004F000E958FE4FA591B491EC91ED2381E090E095
:1005000009F480E0DF91CF91089580E090E0FACF88
:100510001F93CF93DF93282F30E0F901E755FE4F6B
:100520008491F901EB56FE4FD491F901EF57FE4F3C
:10053000C491CC23A9F0162F81110E943602EC2F12
:10054000F0E0EE0FFF1FE359FE4FA591B4918FB776
:10055000F894EC91111108C0D095DE23DC938FBF85
:10056000DF91CF911F910895DE2BF8CF10923C03BD
:1005700081E080933E0310923D0361E082E10E949E
:10058000880261E083E10E948802E9EBF0E080816B
:100590008E7F808380818D7F808388E48093B80004
:1005A00085E48093BC000895CF93DF9391E090930E
:1005B000F3028823B9F0C091B800D091BA008091BD
:1005C000BC008A7B8093BC0060E082E10E948802CC
:1005D00060E083E10E9488020E94B602D093BA00D4
:1005E000C093B800DF91CF910895CF93DF9390E04F
:1005F000FC01EB56FE4F24918F579E4FFC018491D6
:100600008823D1F090E0880F991FFC01ED59FE4F2F
:10061000A591B491FC01E359FE4FC591D4916111AC
:100620000EC09FB7F8948C91E22FE0958E238C93A7
:100630002881E223E8839FBFDF91CF9108958FB790
:10064000F894EC91E22BEC938FBFF6CF8E50806440
:1006500080937C0080917A00806480937A008091FE
:100660007A0086FDFCCF8091780090917900089502
:100670003FB7F8948091A3029091A402A091A502A3
:10068000B091A60226B5A89B05C02F3F19F0019690
:10069000A11DB11D3FBFBA2FA92F982F8827BC01DC
:1006A000CD01620F711D811D911D42E0660F771F04
:1006B000881F991F4A95D1F70895CF92DF92EF9244
:1006C000FF920F931F93CF93DF93FC01C48121E02E
:1006D0002093C902C093A8021092ED021092EC027E
:1006E0008485682B8FE693E00E940702D091EC028C
:1006F000D13208F092C00E9438036B017C018091D6
:100700003C03811165C082E080933C0381E08093CB
:100710003E038FEF80933B0310926003D0935F03FF
:10072000A9EAB2E0EFE3F3E080E0D81385C01092CD
:10073000610380916103CC0FC82BC093610380914A
:100740003D03813009F07CC010923D030E943803C4
:100750006B017C01809161038093BB008091EF026B
:100760009091F002A091F102B091F202892B8A2BB4
:100770008B2B99F00E9438030091EF021091F00248
:100780002091F1023091F2026C197D098E099F09C6
:100790000617170728073907E0F18091BC0083FD91
:1007A000D9CF85EC8093BC000E9438036B017C019B
:1007B00080913C03823009F445C080913B038F3F18
:1007C00061F180913B03803241F180913B0325C070
:1007D0008091EF029091F002A091F102B091F202AB
:1007E000892B8A2B8B2B09F48ACF0E943803009126
:1007F000EF021091F0022091F1023091F2026C1997
:100800007D098E099F09061717072807390708F081
:1008100076CF8091EE020E94D4021092ED021092E7
:10082000EC021092C902DF91CF911F910F91FF90BE
:10083000EF90DF90CF9008959D9191938F5F75CF4A
:1008400085EEB0CF8091EF029091F002A091F1027D
:10085000B091F202892B8A2B8B2B09F4A9CF0E942D
:1008600038030091EF021091F0022091F1023091D3
:10087000F2026C197D098E099F09061717072807D0
:10088000390708F095CFC5CF8F929F92AF92BF9254
:10089000CF92DF92EF92FF926B017C010E943803AE
:1008A0004B015C01C114D104E104F104B9F00E94D0
:1008B0003803681979098A099B09683E73408105E4
:1008C000910580F321E0C21AD108E108F10888EE11
:1008D000880E83E0981EA11CB11CE4CFFF90EF901E
:1008E000DF90CF90BF90AF909F908F9008958F92A0
:1008F0009F92AF92BF92CF92DF92EF92FF920F93AF
:100900001F93CF93DF9310926A0310926B031092A0
:100910006C0310926D0310926E0361E080E10E94FF
:10092000F50260E080E10E94880264E170E080E00E
:1009300090E00E94440461E080E10E9488028BE91B
:1009400090E00197F1F760E080E10E94F502C1E1DB
:10095000D7E280E10E945F02892B89F42197C9F7D1
:100960008EEF9FEFDF91CF911F910F91FF90EF904E
:10097000DF90CF90BF90AF909F908F900895C1E18E
:10098000D7E280E10E945F02019719F42197C9F72D
:10099000E7CF08E210E0C7E0D0E0EE24E394F12CCA
:1009A00091E1C92E97E2D92E80E10E945F02892B46
:1009B00029F481E0C81AD108B9F7D2CF0E943803D0
:1009C0004B015C0181E1C82E87E2D82E80E10E94B4
:1009D0005F02019729F481E0C81AD108B9F7C0CFA6
:1009E0000E943803681979098A099B0969327105DF
:1009F0008105910568F0ED2FF0E0EE59FC4F808500
:100A000097010C2E01C0220F0A94EAF7822B8087EF
:100A1000C11109C0DF5FC7E00150110909F0C0CF63
:100A200090E080E09FCFC150F7CF909100018913F3
:100A30000BC0E2E6F1E0E4919FEF90930001E1301A
:100A400049F028F0E23061F060E00C9488021092E6
:100A50006E00FACF90916F009D7F90936F00F4CF5E
:100A6000909170009D7F9093700091E09093B00002
:100A70009091B100987F94609093B1001092B30070
:100A8000E3CF4F925F926F927F928F929F92AF923D
:100A9000BF92CF92DF92EF92FF920F931F93CF936B
:100AA0008B0149015A0190910001891799F09F3FEC
:100AB00009F48DC0CF911F910F91FF90EF90DF90BF
:100AC000CF90BF90AF909F908F907F906F905F90EE
:100AD0004F900895E2E6F1E0C491C7FDEBCF61E0ED
:100AE0000E94F5022801712C612CCC23E9F09801B9
:100AF00050E040E0C23009F0E3C028013A0160E96B
:100B000070ED83E090E00E94D01969017A0181E0E4
:100B1000C81AD108E108F1088FEFC816D104E10422
:100B2000F10409F00CF40DC168E478EE81E090E086
:100B3000A30192010E94D01969017A0181E0C81ACB
:100B4000D108E108F108CC2309F419C1C23009F039
:100B50000CC18FEFC816D104E104F10409F00CF4C4
:100B60000CC164E274EF80E090E0A30192010E9466
:100B7000D01969017A0181E0C81AD108E108F108A9
:100B800085E09091B100987F892B8093B1002FEF81
:100B90003FEFA90181149104A104B10409F014C12B
:100BA000C13009F4ACC0C23009F4BBC0C11182CF5E
:100BB000C7BC2093820230938302409384025093F7
:100BC000850280916E00826080936E0073CF809367
:100BD0000001E2E6F1E0C491CF3F09F46BCFC130F0
:100BE00039F148F0C23009F445C0C7FD63CF61E078
:100BF0000E94F5027CCF14BC15BC94B5926094BDE4
:100C000095B5916095BD282F30E0F901EF57FE4F63
:100C1000E491F0E0EE0FFF1FE359FE4F4591549130
:100C2000F901EB56FE4FE491E0937D02C0E057CF0F
:100C300010928000109281009091810098609093B2
:100C4000810090918100916090938100282F30E085
:100C5000F901EF57FE4FE491F0E0EE0FFF1FE3596B
:100C6000FE4F45915491F901EB56FE4FE491E0930C
:100C70007C0235CF1092B0001092B1009091B0007C
:100C800092609093B0009091B10091609093B10008
:100C9000282F30E0F901EF57FE4FE491F0E0EE0F1E
:100CA000FF1FE359FE4F45915491509387024093A3
:100CB0008602F901EB56FE4FE491E09388020FCFD4
:100CC00060E072E18AE790E00E94D01969017A0140
:100CD00081E0C81AD108E108F108C13009F057CF06
:100CE00080918100887F8160809381002FEF3FEFAA
:100CF000A90181149104A104B10409F065C0D09246
:100D00008900C092880020937E0230937F02409336
:100D100080025093810280916F00826080936F0007
:100D2000C9CEC092B3002093890230938A024093C7
:100D30008B0250938C0280917000826080937000CF
:100D4000B9CE83E01ECF62E17AE780E090E0A301B4
:100D500092010E94D01969017A0181E0C81AD10874
:100D6000E108F108C1E086E00CCF8FEFC816D1048E
:100D7000E104F10409F03CF7C1E084E002CF93E024
:100D80008FEFC816D104E104F10489F084F062E128
:100D90007AE780E090E0A30192010E94D0196901F6
:100DA0007A0181E0C81AD108E108F10894E085B51C
:100DB000887F892B85BD2FEF3FEFA9018114910416
:100DC000A104B10409F4F4CED801AA0FBB1FA501F8
:100DD00094010E94EF1928EE33E040E050E00E94B9
:100DE000391ADECEDB0114964D915C9115976D9109
:100DF0007C91DC01ED91FC910280F381E02D09945E
:100E0000AF92BF92CF92DF92EF92FF920F931F9318
:100E1000CF93DF936C017B018B01040F151FEB0156
:100E20005E01AE18BF08C017D10759F06991D6010D
:100E3000ED91FC910190F081E02DC6010995892B7F
:100E400079F7C501DF91CF911F910F91FF90EF903E
:100E5000DF90CF90BF90AF900895089590E080E02C
:100E60000895FC01538D448D252F30E0842F90E0B0
:100E7000821B930B541710F0CF9608950197089595
:100E8000FC01918D828D981761F0A28DAE0FBF2F5E
:100E9000B11D5D968C91928D9F5F9F73928F90E0B4
:100EA00008958FEF9FEF0895FC01918D828D981723
:100EB00031F0828DE80FF11D858D90E008958FEF60
:100EC0009FEF0895FC01918D228D892F90E0805C29
:100ED0009F4F821B91098F73992708958BE793E0A9
:100EE0000E94620721E0892B09F420E0822F0895F7
:100EF00080E090E0892B29F00E946E0781110C940C
:100F000000000895FC01A48DA80FB92FB11DA35AAC
:100F1000BF4F2C91848D90E001968F739927848F19
:100F2000A689B7892C93A089B1898C91837080643C
:100F30008C93938D848D981306C00288F389E02DDD
:100F400080818F7D80830895EF92FF920F931F938E
:100F5000CF93DF93EC0181E0888F9B8D8C8D98136C
:100F60001AC0E889F989808185FF15C09FB7F89478
:100F7000EE89FF896083E889F989808183708064C4
:100F800080839FBF81E090E0DF91CF911F910F910F
:100F9000FF90EF900895F62E0B8D10E00F5F1F4F1E
:100FA0000F731127E02E8C8D8E110CC00FB607FC2D
:100FB000FACFE889F989808185FFF5CFCE010E94BB
:100FC0008207F1CFEB8DEC0FFD2FF11DE35AFF4FA0
:100FD000F0829FB7F8940B8FEA89FB898081806249
:100FE000CFCFCF93DF93EC01888D8823B9F0AA8906
:100FF000BB89E889F9898C9185FD03C0808186FDD4
:101000000DC00FB607FCF7CF8C9185FFF2CF808122
:1010100085FFEDCFCE010E948207E9CFDF91CF910E
:1010200008950F931F93CF938C01C62F0E945D03E9
:101030006C2F6460C8010E945D036C2F6B7FC80138
:101040000E945D0383EC90E00197F1F7CF911F912F
:101050000F9108950F931F93CF93DF938C01D62F99
:10106000C42F607F642B0E94110880E1D89FB001DB
:1010700011246C2BC801DF91CF911F910F910C941B
:101080001108CF93DF93CDB7DEB728970FB6F8944A
:10109000DEBF0FBECDBF98E0E9E0F1E0DE011196C2
:1010A00001900D929A95E1F790914804961708F4F3
:1010B0006FEF262F30E0220F331F41E050E04C0F3E
:1010C0005D1F240F351FF9016081680F606840E0E3
:1010D00080E494E028960FB6F894DEBF0FBECDBF33
:1010E000DF91CF910C942A0840E061E080E494E025
:1010F0000E942A088BE39FE10197F1F78091490450
:10110000882321F060E080E00C944108089541E0DC
:101110000E942A0881E090E0089542E050E061E4F6
:1011200071E08BE793E00C940007CF93DF93FC0111
:1011300001900020E9F73197AF01481B590BBC0122
:101140008BE793E00E940007EC010E948D088C0F52
:101150009D1FDF91CF9108950F931F93CF93DF933E
:10116000EC01162F042F8C819D81892B51F064E4B2
:1011700071E0888199810E94931D892B11F40E944E
:101180007408602F812F0E944108BE0180E494E022
:10119000DF91CF911F910F910C94F20685ED809312
:1011A000BC008091EF029091F002A091F102B09109
:1011B000F2020796A11DB11D23E0B695A79597955C
:1011C00087952A95D1F72091BC0024FD03C0109289
:1011D0003C0308954091EF025091F0026091F102BA
:1011E0007091F202452B462B472B69F30097A1051E
:1011F000B10541F025E32A95F1F700000197A10917
:10120000B109E1CF8091EE020C94D4020F931F93A9
:10121000CF93DF93EC0188819981009759F02A815F
:101220003B812617370730F081E0DF91CF911F9186
:101230000F9108958B016F5F7F4F0E94C51C00972F
:1012400059F0998388831B830A832C813D81232B4A
:1012500059F7FC011082E8CF80E0E7CFEF92FF92D0
:101260000F931F93CF93DF936115710541F480E0D5
:10127000DF91CF911F910F91FF90EF90089541154D
:101280005105B1F07B01EC010C811D81040F151F8C
:10129000B8010E940609882351F3288139818C8185
:1012A0009D81B701820F931F0E949C1D1D830C839B
:1012B00081E0DECFFC0144815581608171818DE444
:1012C00094E00C942E09CF93DF93EC0188819981EF
:1012D000009711F00E943C1C198218821D821C820A
:1012E0001B821A82DF91CF910895CF93DF93EC0197
:1012F000FB0101900020E9F73197AF01461B570B26
:101300000E942E09811103C0CE010E946309CE0103
:10131000DF91CF910895CF93DF93EC01FB014481DE
:101320005581608171810E942E09811103C0CE0117
:101330000E946309CE01DF91CF910895EF92FF9251
:101340000F931F93CF93DF93EC017B018A01BA01C6
:101350000E94060981110BC0CE010E946309CE01D3
:10136000DF91CF911F910F91FF90EF9008951D8312
:101370000C83B701888199810E949C1DF0CFFB01ED
:1013800001900020E9F73197AF01461B570B0C94F1
:101390009E090F931F93CF93DF93CDB7DEB762976C
:1013A0000FB6F894DEBF0FBECDBF8C01CB01F801A4
:1013B0001182108213821282158214824AE0BE01C9
:1013C0006F5F7F4F0E944016BE016F5F7F4FC80165
:1013D0000E94BF0962960FB6F894DEBF0FBECDBF64
:1013E000DF91CF911F910F910895FB01DC011196C0
:1013F0001C921E9213961C921E92129715961C9286
:101400001E9214978617970749F0608171816115C4
:10141000710521F0448155810C949E090895FC01C9
:10142000118210821382128215821482FB010190B4
:101430000020E9F73197AF01461B570B0C949E092A
:10144000FC0180819181009711F00C943C1C08955F
:101450008F929F92AF92BF92CF92DF92EF92FF92C4
:101460000F931F93CF93DF93CDB7DEB72C970FB6B3
:10147000F894DEBF0FBECDBF7C0110913F040091F8
:101480003E0480913D04D12CC12C8F3FE1F090E0CF
:10149000FC01EE0FFF1FE80FF91FE85EFB4F2181F3
:1014A000328173E0220F331F7A95E1F750E040E07C
:1014B000E4E05595479537952795EA95D1F7690169
:1014C00082E0C80ED11C0E94740860E571E0CE0174
:1014D00001960E940F0AB701CE0101960E948B0966
:1014E000BC0180E494E00E94F206CE0101960E94C5
:1014F000200A6AE571E0CE0107960E940F0AAF80CC
:10150000B884A114B10471F0F50181915F018823C1
:1015100049F0082E000C990B0E94821DF5013197AD
:101520008083F2CF8B859C85892B09F498C0EF814D
:10153000F885309709F493C080818C3409F456C043
:10154000873509F4E2C0863409F089C020E030E034
:10155000A90168E572E0809155040E9441056CE3A1
:1015600070E080E090E00E94440420E030E0A901B7
:1015700060E273E0809155040E9441056EE170E0E5
:1015800080E090E00E94440420E030E0A9016CEB90
:1015900072E0809155040E94410560E570E080E0B2
:1015A00090E00E94440420E030E0A9016CED75E079
:1015B000809155040E9441056CE370E080E090E06A
:1015C0000E94440420E030E0A90168E978E08091BD
:1015D00055040E94410566E470E080E090E00E94BE
:1015E0004404809155040E94150539C00E94740876
:1015F00069E671E0CE0101960E940F0A40E060E0CA
:10160000CE0101960E94AC08CE0101960E94200AEC
:1016100065E771E0CE0101960E940F0A41E063E0A8
:10162000CE0101960E94AC08CE0101960E94200ACC
:1016300053E0A52EB12C2CE231E040E050E060E90F
:1016400071E0809155040E94410564EF71E080E0F3
:1016500090E00E944404F1E0AF1AB10861F7CE01B6
:1016600007960E94200AF70184819581892B09F44D
:1016700073C088E8882E912C801A910807FD9394F6
:10168000880C991C880C991C092C000CAA08BB0812
:1016900096012F5F3F4F032E000C440B550B28196A
:1016A00039094A095B09A4EBB0E00E94EF1928E56B
:1016B00032E0211B310917FD3395220F331F220F12
:1016C000331F032E000C440B550B281939094A0906
:1016D0005B090E94D0198901F701C080D18064E8BC
:1016E00071E0C6010E94931D892B01F5093B11058C
:1016F0009CF5C8010E940B016AE070E080E090E078
:101700000E9444040F5F1F4FF1CF2EEE32E040E005
:1017100050E06CE073E0809155040E94410568EE52
:1017200073E080E090E00E94440499CF6CE871E09F
:10173000C6010E94931D892B79F41016110664F4DA
:10174000C8010E940B016AE070E080E090E00E9416
:10175000440401501109F1CF60ED77E080E090E0A2
:101760000E94440461E0809153040E94880260ED6D
:1017700077E080E090E00E94440460E080915304B0
:101780000E94880264EF71E080E090E00E944404CF
:101790000E947408B701CE0101960E94F50964E920
:1017A00071E0CE0101960E947509BC0180E494E0CD
:1017B0000E94F206CE0101960E94200A68EE73E0B4
:1017C00080E090E00E944404B701CE0101960E949F
:1017D000F50964E971E0CE0101960E947509BC012A
:1017E0008BE793E00E94F2060E948D08CE010196DD
:1017F0000E94200A68EE73E080E090E00E944404BA
:101800008BE793E00E94F1072C960FB6F894DEBFA9
:101810000FBECDBFDF91CF911F910F91FF90EF9041
:10182000DF90CF90BF90AF909F908F9008951F92C0
:101830000F920FB60F9211242F933F934F935F9304
:101840006F937F938F939F93AF93BF93EF93FF9388
:101850008091B900887F803609F44AC0F0F588325B
:1018600009F4A7C018F5803109F49BC0B8F48823A7
:1018700009F4F9C0883009F494C0FF91EF91BF9149
:10188000AF919F918F917F916F915F914F913F9118
:101890002F910F900FBE0F901F901895883109F46B
:1018A00088C0803251F780933B0314C0803409F420
:1018B0009DC040F48033B9F38833F9F680933B033D
:1018C00085ECB0C0803509F485C0883509F496C030
:1018D000883499F60E94CE08D0CF883909F48CC09C
:1018E00038F5883729F050F4883611F0803729F61A
:1018F00083E080933C0310923A0357C0883809F480
:101900007BC0803919F0803809F0B7CF80913A0355
:10191000803208F071C0E0913A0381E08E0F80932D
:101920003A038091BB00F0E0E65EFC4F80833DC04F
:10193000803B39F0E0F4803A09F479C0883A09F044
:101940009CCF84E080933C031092170310921603FF
:10195000E0911403F091150309958091160381110C
:101960000FC081E0809316031092F40209C0803CFE
:1019700009F4A6CF883C09F4A3CF883B09F07DCFBA
:10198000E091170381E08E0F80931703F0E0EC5095
:10199000FD4F80818093BB009091170380911603C7
:1019A00029C0809161038093BB0085EC8093BC00CB
:1019B00064CF9091600380915F03981758F5E09190
:1019C000600381E08E0F80936003F0E0E15CFC4FE8
:1019D0008081E9CFE091600381E08E0F8093600306
:1019E0008091BB00F0E0E15CFC4F8083909160034C
:1019F00080915F039817C8F285E8D8CFE091600323
:101A000081E08E0F809360038091BB00F0E0E15C89
:101A1000FC4F808380913E0381115CCF81E08093F5
:101A20003D0384EA8093BC0010923C0326CF85ECF2
:101A30008093BC0010923C0380913A03803230F4D2
:101A4000E0913A03F0E0E65EFC4F108260913A03C9
:101A500070E0E0911803F09119038AE193E0099591
:101A600010923A030ACF10923B0334CF1F920F9289
:101A70000FB60F9211242F933F934F935F936F9361
:101A80007F938F939F93AF93BF93CF93DF93EF9306
:101A9000FF938091A702C0913C04D0E087FF24C04F
:101AA00010928500109284008091A7028F5F80932E
:101AB000A7028091A702082E000C990B8C179D0796
:101AC00024F48091A7028C30C4F18091840090911D
:101AD0008500049680349C4908F47AC08091840083
:101AE00090918500049676C08091A702082E000C84
:101AF000990B8C179D07C4F6E091A7028E2FEE0F6D
:101B0000990BFC01EE0FFF1FE80FF91FE85EFB4F7A
:101B1000808186FFC9CFE091A7028E2FEE0F990B2F
:101B2000FC01EE0FFF1FE80FF91FE85EFB4F8081FD
:101B300060E08F730E948802B7CF209184003091BB
:101B40008500E091A7028E2FEE0F990BFC01EE0F9E
:101B5000FF1FE80FF91FE85EFB4F81819281820F22
:101B6000931F9093890080938800E091A7028E2FA5
:101B7000EE0F990BFC01EE0FFF1FE80FF91FE85E57
:101B8000FB4F808186FF11C0E091A7028E2FEE0FE0
:101B9000990BFC01EE0FFF1FE80FF91FE85EFB4FEA
:101BA000808161E08F730E948802FF91EF91DF9145
:101BB000CF91BF91AF919F918F917F916F915F91E5
:101BC0004F913F912F910F900FBE0F901F9018953E
:101BD00080E49CE990938900809388008FEF809344
:101BE000A702E3CF1F920F920FB60F9211242F93EB
:101BF0003F938F939F93AF93BF9380919F02909158
:101C0000A002A091A102B091A20230919E0223E015
:101C1000230F2D3758F50196A11DB11D20939E026B
:101C200080939F029093A002A093A102B093A2027E
:101C30008091A3029091A402A091A502B091A60266
:101C40000196A11DB11D8093A3029093A402A093BD
:101C5000A502B093A602BF91AF919F918F913F9142
:101C60002F910F900FBE0F901F90189526E8230F0D
:101C70000296A11DB11DD2CF1F920F920FB60F92E7
:101C800011242F933F934F935F936F937F938F9381
:101C90009F93AF93BF93EF93FF93809189029091AD
:101CA0008A02A0918B02B0918C02892B8A2B8B2BFC
:101CB000D1F190918802E0918602F09187028081B3
:101CC000892780838091890290918A02A0918B025A
:101CD000B0918C02181619061A061B069CF4809106
:101CE000890290918A02A0918B02B0918C02019797
:101CF000A109B1098093890290938A02A0938B0273
:101D0000B0938C02FF91EF91BF91AF919F918F9112
:101D10007F916F915F914F913F912F910F900FBEE7
:101D20000F901F901895809100010E941505EACF31
:101D30001F920F920FB60F9211242F933F934F9340
:101D40005F936F937F938F939F93AF93BF93EF9323
:101D5000FF938BE793E00E948207FF91EF91BF9181
:101D6000AF919F918F917F916F915F914F913F9133
:101D70002F910F900FBE0F901F9018951F920F92EA
:101D80000FB60F9211242F938F939F93EF93FF938E
:101D9000E0918B03F0918C038081E0919103F091AD
:101DA000920382FD1BC09081809194038F5F8F739B
:101DB00020919503821741F0E0919403F0E0E558FB
:101DC000FC4F958F80939403FF91EF919F918F919A
:101DD0002F910F900FBE0F901F9018958081F4CF18
:101DE000109272031092710388EE93E0A0E0B0E0CD
:101DF0008093730390937403A0937503B093760359
:101E000025E131E03093700320936F0310927E033D
:101E100010927D0380937F0390938003A0938103AE
:101E2000B093820387E291E090937C0380937B03DD
:101E300085EC90E0909388038093870384EC90E096
:101E400090938A038093890380EC90E090938C03B5
:101E500080938B0381EC90E090938E0380938D03AD
:101E600082EC90E09093900380938F0386EC90E057
:101E70009093920380939103109294031092950390
:101E8000109296031092970310924304109242040A
:101E900089E391E0909341048093400410924904B7
:101EA00087E28093440480E180934A0482E0809337
:101EB0004B0410924C0480913C048C3050F591E01E
:101EC000980F90933C0480933D0490E0FC01EE0F4A
:101ED000FF1FE80FF91FE85EFB4F88EB9BE0928342
:101EE000818363E471E08BE594E00E940F0A83E054
:101EF0008093540481E18093550484E080935304DB
:101F000085E08093560463E471E08DE494E00C94E2
:101F10000F0A8FEF80933D04E4CFCF93DF93CDB7CB
:101F2000DEB7AD970FB6F894DEBF0FBECDBF789485
:101F300084B5826084BD84B5816084BD85B58260CE
:101F400085BD85B5816085BD80916E00816080937F
:101F50006E001092810080918100826080938100E8
:101F600080918100816080938100809180008160F8
:101F7000809380008091B10084608093B100809153
:101F8000B00081608093B00080917A00846080937B
:101F90007A0080917A00826080937A0080917A0042
:101FA000816080937A0080917A00806880937A00C3
:101FB0001092C10061E083E00E94F50261E084E0DC
:101FC0000E94F50261E085E00E94F50260E08AE08F
:101FD0000E94F50260E089E00E94F50260E08DE079
:101FE0000E94F50260E08CE00E94F50260E08EE065
:101FF0000E94F50260E08FE00E94F50260E080E15F
:102000000E94F50261E081E10E94F502E0918B03FC
:10201000F0918C0382E08083E0918703F091880344
:102020001082E0918903F0918A038FEC80831092F3
:102030009303E0918F03F091900386E08083E09119
:102040008D03F0918E03808180618083E0918D0308
:10205000F0918E03808188608083E0918D03F09100
:102060008E03808180688083E0918D03F0918E03E0
:1020700080818F7D8083CC24CA9413E0D12EE12C03
:10208000F12C8FE00E94260324EC39E0DC010E9451
:102090007E1AA70196010E94D019CA01B9016C5F8E
:1020A0007F4F8F4F9F4F0E94B31820E030E048ECE5
:1020B00052E40E94F81A2AE939E949E95EE30E94EC
:1020C0008B1A60939A0270939B0280939C02909368
:1020D0009D0220E030E040E85FE30E94AC1887FFFB
:1020E0000BC08BE991E00E94950860E177E280E007
:1020F00090E00E944404C5CF81EC91E00E949508D5
:1021000080913D048C3008F054C01091540461E07B
:10211000812F0E94F50280913D04282F30E0F901C3
:10212000EE0FFF1FE20FF31FE85EFB4F1F7390815E
:10213000907C912B908310923E0410923F042CE0EF
:10214000622F0E946A1A829FB001112430E020E0C1
:10215000AB01420F531FFA01EE0FFF1FE40FF51FF3
:10216000E85EFB4F908196FD16C02F5F3F4F2C30ED
:10217000310571F781110FC01092800082E08093C9
:1021800081001092850010928400B19A80916F00B6
:10219000826080936F00E0913D048E2F90E0FC01FF
:1021A000EE0FFF1FE80FF91FE85EFB4F8081806490
:1021B000808390E080E00E940B0164E670E080E0A4
:1021C00090E00E9444041092EB021092EA021092F6
:1021D000ED021092EC020E94B6028EEA91E090931A
:1021E0001503809314038FEA91E090931903809371
:1021F00018031092450480914B04823018F098E047
:10220000909345048093480462E370E080E090E09E
:102210000E94440438E0F32EF0924C0468E080E41D
:1022200094E00E945D0362E370E080E090E00E9431
:10223000440460E380E494E00E9411080BE416E497
:10224000C8010197F1F760E380E494E00E9411086F
:10225000C8010197F1F760E380E494E00E9411085F
:1022600083E592E00197F1F760E280E494E00E9458
:10227000110860914504606240E080E494E00E94AF
:102280002A0884E08093460440E06CE080E494E017
:102290000E942A080E94740882E08093470440E06C
:1022A00066E080E494E00E942A0840E062E080E476
:1022B00094E00E942A088BE39FE10197F1F767EC15
:1022C00071E0CE0101960E940F0A40E060E0CE016D
:1022D00001960E94AC08CE0101960E94200A68ED8A
:1022E00071E0CE0101960E940F0A41E060E0CE014C
:1022F00001960E94AC08CE0101960E94200A68EB6C
:102300007BE080E090E00E94440420E030E0A901FE
:102310006CEB72E0809155040E94410568E770E023
:1023200080E090E00E94440420E030E0A90164E8ED
:1023300073E0809155040E94410568EC70E080E0F4
:1023400090E00E944404809155040E9415050E946B
:102350007408F0924C0460E080E494E00E945D0315
:1023600089EE91E00E9495088BE793E00E94F107C7
:1023700064E670E080E090E00E9444048BE793E024
:102380000E946207892B61F08BE793E00E9440076F
:102390008F3331F488EE93E0909302018093010132
:1023A00088248A9483E0982EA12CB12C90E0E92E09
:1023B00090E0F92E28EEC22E23E0D22E63E471E0E5
:1023C0008DE494E00E94BF098BE793E00E946207CE
:1023D000892B61F18BE793E00E944007853509F472
:1023E00048C364F48C3409F43FC3803589F08F33DB
:1023F000E9F4D0920201C092010118C0803709F4BB
:1024000030C3853709F439C38C3681F460E02DC3BD
:1024100064E871E0CE0101960E940F0ACE01019698
:102420000E94280ACE0101960E94200A8EE00E9496
:1024300026038C0190939902809398020E9477045E
:10244000892BF1F460916A0370E090E080E00E94D3
:10245000B118609362037093630380936403909355
:10246000650360916C0370E090E080E00E94B11819
:102470006093660370936703809368039093690386
:10248000609166037091670380916803909169037E
:102490000E946A1B70939702609396020E947704D1
:1024A000892BF1F460916A0370E090E080E00E9473
:1024B000B1186093620370936303809364039093F5
:1024C000650360916C0370E090E080E00E94B118B9
:1024D0006093660370936703809368039093690326
:1024E000609162037091630380916403909165032E
:1024F0000E946A1B70939502609394028FE00E9481
:10250000260324EC39E0DC010E947E1AA501940127
:102510000E94D019CA01B9016C5F7F4F8F4F9F4F46
:102520000E94B31820E030E048EC52E40E94F81A10
:102530002AE939E949E95EE30E948B1A60939A021D
:1025400070939B0280939C0290939D0260939002F3
:1025500070939102809392029093930280918F02E4
:1025600081118DC2C801895E93406DEF71E047977C
:10257000C8F0C8018955924064E072E0803991400A
:1025800088F0C8018B5A91096BE072E08E3A914055
:1025900048F00150110962E172E00A3A110510F0A9
:1025A00069E172E08BE594E00E94BF096BE574E09D
:1025B000CE0182960E94F50960E272E0CE01889613
:1025C0000E940F0ABE016E5D7F4FCE0188960E9469
:1025D0008B09BC01CE0101960E94F50940E060E044
:1025E000CE0101960E94AC08CE0101960E94200AFD
:1025F000CE0188960E94200ACE0182960E94200A6F
:10260000809196029091970264E272E0883291057F
:10261000BCF49C01245231096BE272E02430310594
:1026200078F09C012052310962E372E024303105D8
:1026300038F04A9769E372E0069710F060E472E0C0
:102640008BE594E00E94BF096BE574E0CE018296B1
:102650000E94F50967E472E0CE0188960E940F0A95
:10266000BE016E5D7F4FCE0188960E948B09BC0132
:10267000CE0101960E94F50940E069E0CE01019685
:102680000E94AC08CE0101960E94200ACE018896D5
:102690000E94200ACE0182960E94200A8091940214
:1026A000909195026BE472E086349105BCF49C0134
:1026B0002C53310962E372E02A30310578F09C0135
:1026C0002E51310962E572E02E31310538F049971B
:1026D00069E372E0059710F069E572E08BE594E03C
:1026E0000E94BF096BE574E0CE0182960E94F50955
:1026F00060E672E0CE0188960E940F0ABE016E5D10
:102700007F4FCE0188960E948B09BC01CE010196B5
:102710000E94F50941E060E0CE0101960E94AC08FC
:10272000CE0101960E94200ACE0188960E94200ABE
:10273000CE0182960E94200A2AE939E949E550E44F
:102740006091900270919102809192029091930217
:102750000E948B1A20E030E048EC52E40E941219EB
:1027600020E030E040EA52E40E94F81A20E030E035
:1027700048EC52E40E941219609357047093580475
:102780008093590490935A040E946A1BCE0182964A
:102790000E94C90964E672E0CE0188960E940F0A81
:1027A000BE016E5D7F4FCE0188960E948B0968E660
:1027B00072E00E947509BC01CE0101960E94F509E4
:1027C00041E069E0CE0101960E94AC08CE0101967D
:1027D0000E94200ACE0188960E94200ACE0182968D
:1027E0000E94200A6091940270919502CE01019698
:1027F0000E94C90963E772E0CE0182960E940F0A27
:10280000BE016F5F7F4FCE0182960E948B0962E40A
:1028100071E00E9475090E945A09CE0182960E94B9
:10282000200ACE0101960E94200A609196027091C2
:102830009702CE0101960E94C90965E772E0CE01B8
:1028400082960E940F0ABE016F5F7F4FCE01829673
:102850000E948B0962E471E00E9475090E945A0986
:10286000CE0182960E94200ACE0101960E94200A83
:102870002091980230919902ACE9BFEF0E94761A3C
:10288000A50194010E94D019CA01B9016C597F4F6A
:102890008F4F9F4FCE0101960E94C90967E772E0F2
:1028A000CE0182960E940F0ABE016F5F7F4FCE015C
:1028B00082960E948B0962E471E00E9475090E9471
:1028C0005A09CE0182960E94200ACE0101960E94EA
:1028D000200A2AE939E949E550E4609190027091B3
:1028E000910280919202909193020E948B1A20E0B3
:1028F00030E048EC52E40E94121920E030E040EA57
:1029000052E40E94F81A20E030E048EC52E40E94C1
:10291000121960935704709358048093590490934C
:102920005A040E946A1BCE0101960E94C90965ECF7
:1029300071E0CE0182960E940F0ABE016F5F7F4F49
:10294000CE0182960E948B0962E471E00E947509B3
:102950000E945A09CE0182960E94200ACE01019659
:102960000E94200A609190027091910280919202DF
:10297000909193021BA21AA21DA21CA21FA21EA22A
:102980008E010F5F1F4F22E044E00E942216009745
:1029900009F43FC1BC01CE0182960E94BF0969E7DC
:1029A00072E0CE0101960E940F0ABE016E5D7F4F5C
:1029B000CE0101960E948B0962E471E00E947509C4
:1029C0000E945A09CE0101960E94200ACE018296E9
:1029D0000E94200A6DE474E08BE793E00E94F20607
:1029E0000E948D088BE793E00E94F1078DE00E9422
:1029F0005F02892B09F412C18AE00E945F02809174
:102A00008D0290918E0244976CF080918F02882302
:102A100009F40CC110928F0210928E0210928D0256
:102A20000E94740880918D0290918E02019690937D
:102A30008E0280938D026091010170910201072E38
:102A4000000C880B990B0E944404E114F10409F472
:102A5000B5CC0E946E07882309F4B0CC0E94000018
:102A6000ADCC6CE871E0D6CC61E085E00E948802D4
:102A7000DDCC61E080915304F9CF60E0FBCF980199
:102A8000ACE9BFEF0E94761AA50194010E94D0190B
:102A9000CA01B9016C597F4F8F4F9F4FCE0182966B
:102AA0000E94C90960E272E0CE0188960E940F0A76
:102AB000BE016E5D7F4FCE0188960E948B096BE64A
:102AC00072E00E947509BC01CE0101960E94F509D1
:102AD00040E060E0CE0101960E94AC08CE01019674
:102AE0000E94200ACE0188960E94200ACE0182967A
:102AF0000E94200A6091960270919702CE01829600
:102B00000E94C90967E472E0CE0188960E940F0A0C
:102B1000BE016E5D7F4FCE0188960E948B0960E7F3
:102B200072E00E947509BC01CE0101960E94F50970
:102B300040E069E0CE0101960E94AC08CE0101960A
:102B40000E94200ACE0188960E94200ACE01829619
:102B50000E94200A6091940270919502CE018296A3
:102B60000E94C90960E672E0CE0188960E940F0AB1
:102B7000BE016E5D7F4FCE0188960E948B096BE689
:102B800072E00E947509BC01CE0101960E94F50910
:102B900041E060E0CE0101960E94AC08CE010196B2
:102BA0000E94200ACE0188960E94200ACE018296B9
:102BB0000E94200A6091900270919102809192028D
:102BC000909193021BA21AA21DA21CA21FA21EA2D8
:102BD0008E010F5F1F4F22E044E00E9422160097F3
:102BE00099F0BC01CE0182960E94BF0964E672E0B2
:102BF000CE0188960E940F0ABE016E5D7F4FCE0106
:102C000088960E948B09D7CDCE0182960E946309D7
:102C1000EDCFCE0182960E946309C1CE8CE00E9466
:102C20005F02892B09F4EBCE89E0E7CE81E0809347
:102C30008F02F2CE8DE494E00E94200A8BE594E0AE
:102C40000C94200AEF920F931F93CF93DF93E80128
:102C500034E047FD34E1042E000C550B57FF03C050
:102C6000519541955109E32E022F242FAE010E9468
:102C70006516CE01DF91CF911F910F91EF900895CE
:102C8000BB274A3031F4992322F4BDE29095819517
:102C90009F4F0C944C16BB27FB015527AA27880F82
:102CA000991FAA1FA41710F0A41B83955051B9F7C0
:102CB000A05DAA3308F0A95DA193009779F7B1113F
:102CC000B1931192CB010C949C18A9E0B0E0EBE613
:102CD000F6E10C94081A6A01F22EB02E102FFBE3D5
:102CE000AF2EA01608F41BE31F5F012F27E0AE01F3
:102CF0004F5F5F4F0E94C417BC018981982F997064
:102D0000913009F43FC09BE2E1FC04C09E2D91701C
:102D1000E0FC3AC05E2D5071E82FE87083FF46C09A
:102D200084E0911101C083E0EF2DE81B8F1508F0BE
:102D3000E0E0D6018E2F20E2552351F1992329F0AE
:102D4000D6019C93C60101966C0196012D5F3F4F01
:102D5000E2FE24C08EE4D6018C9391E411969C93FC
:102D6000119712968C93D9018E2F90E281111BC07E
:102D7000E20FF32FF11D10828EEF9FEF2996ECE00A
:102D80000C94241A9DE2C6CF90E2C4CF2D938150BB
:102D90008111FCCFCE0ED11CE0E0D0CF8EE6D60163
:102DA0008C9391E6DBCF9D938150E0CF482F447008
:102DB00082FF3DC084E0911101C083E08F1510F4C3
:102DC000EF2DE81BD6018E2F20E2552309F1992320
:102DD00029F0D6019C93C60101966C0196012D5FE6
:102DE0003F4FE2FE1BC089E4D6018C938EE411961E
:102DF0008C93119786E412968C93D9018E2F90E2D2
:102E0000882309F4B5CF9D938150FACF2D9381503B
:102E10008111FCCFCE0ED11CE0E0D9CF89E6D601DE
:102E20008C938EE611968C93119786E6E4CF9B01E6
:102E300077FF02C030E020E0A1E0B0E0911102C0D5
:102E4000B0E0A0E0F9013196AE0FBF1F8B2C912CA2
:102E5000BB2009F461C05401EFEFAE1ABE0AAA0DFF
:102E6000BB1DFA161B0619F014F04F2D4A1B511109
:102E700088C0E3FC59C07601A42FB0E2A1114FC075
:102E8000C40ED11C992309F45BC040E0D601119611
:102E9000F60190836D01552309F448C0012F060FF8
:102EA0009A81582F507184FF03C0913309F4015067
:102EB00010160CF047C0093008F008E0EEE2FE2ED4
:102EC0005B01A01AB10885019194819491082F3F6C
:102ED000320729F4D601FC92F60131966F01621790
:102EE000730794F1021713077CF5DB01A21BB30BE8
:102EF000AA24A394B12CAC0EBD1EAA0DBB1D119625
:102F00008C9121503109D601119628153905F4F01C
:102F1000F60180836D01DBCFB12CA12CA0CFF7018E
:102F2000B1937F01A150AACF9111B0CFD601942FB8
:102F300050E302C05D9391509111FCCFC40ED11C9F
:102F400040E0ACCF01E0BACF80E3DBCF621773077C
:102F500031F4963388F4953311F4552369F0F60172
:102F60008083FD01842F90E2811108C0A40FB11D60
:102F70001C9290E080E002CF81E3F1CF91938150E9
:102F8000F3CF911183CF8ACF283008F027E0332781
:102F9000DA01990F311D87FD916000966105710579
:102FA00039F432602E5F3D9330E32A95E1F70895BE
:102FB0009F3F30F080387105610509F03C5F3C5F50
:102FC0003D93913008F08068911DDF93CF931F935C
:102FD0000F93FF92EF92192F987F9695E92F969570
:102FE0009695E90FFF27EE53FF4F99273327EE24DD
:102FF000FF24A701E70105900894079428F4360FF1
:10300000E71EF81E491F511D660F771F881F991F65
:103010000694A1F70590079428F4E70EF81E491FBF
:10302000561FC11D770F881F991F661F0694A1F7B1
:103030000590079428F4F80E491F561FC71FD11D8D
:10304000880F991F661F771F0694A1F705900794B4
:1030500020F4490F561FC71FD81F990F661F771FEF
:10306000881F0694A9F784911095177041F0D695A2
:10307000C79557954795F794E7941A95C1F7E8E6F1
:10308000F0E06894159015913591659195910590B2
:103090007FE27395E118F10A430B560BC90BD00977
:1030A000C0F7E10CF11E431F561FC91FD01D7EF44F
:1030B000703311F48A95E6CFE894015030F0080F90
:1030C0000AF40027021708F4202F2395022F7A33E1
:1030D00028F079E37D932A95E9F710C07D932A952E
:1030E00089F6069497956795379517951794E11883
:1030F000F10A430B560BC90BD00998F023957E912A
:1031000073957A3308F070E37C932013B8F77E91BF
:1031100070617D9330F0839571E37D9370E32A9520
:10312000E1F71124EF90FF900F911F91CF91DF9164
:10313000992787FD90950895DC01FC01672F719117
:103140007723E1F7329704C07C916D93708362918D
:10315000AE17BF07C8F308950E94EE1808F481E087
:103160000895E89409C097FB3EF49095809570957A
:1031700061957F4F8F4F9F4F9923A9F0F92F96E9C3
:10318000BB279395F695879577956795B795F11138
:10319000F8CFFAF4BB0F11F460FF1BC06F5F7F4FD5
:1031A0008F4F9F4F16C0882311F096E911C07723E7
:1031B00021F09EE8872F762F05C0662371F096E8F0
:1031C000862F70E060E02AF09A95660F771F881FBF
:1031D000DAF7880F9695879597F90895990F000863
:1031E000550FAA0BE0E8FEEF16161706E807F907D9
:1031F000C0F012161306E407F50798F0621B730B74
:10320000840B950B39F40A2661F0232B242B252BF4
:1032100021F408950A2609F4A140A6958FEF811D97
:10322000811D08950E9425190C9496190E948819F1
:1032300038F00E948F1920F0952311F00C947F191B
:103240000C94851911240C94CA190E94A71970F3C3
:10325000959FC1F3950F50E0551F629FF001729F3B
:10326000BB27F00DB11D639FAA27F00DB11DAA1F4A
:10327000649F6627B00DA11D661F829F2227B00D97
:10328000A11D621F739FB00DA11D621F839FA00D22
:10329000611D221F749F3327A00D611D231F849F72
:1032A000600D211D822F762F6A2F11249F575040C9
:1032B0009AF0F1F088234AF0EE0FFF1FBB1F661F44
:1032C000771F881F91505040A9F79E3F510580F00D
:1032D0000C947F190C94CA195F3FE4F3983ED4F321
:1032E000869577956795B795F795E7959F5FC1F7B1
:1032F000FE2B880F911D9695879597F9089597F95C
:103300009F6780E870E060E008959FEF80EC08958B
:1033100000240A94161617061806090608950024B4
:103320000A9412161306140605060895092E03942E
:10333000000C11F4882352F0BB0F40F4BF2B11F4A2
:1033400060FF04C06F5F7F4F8F4F9F4F089557FD01
:103350009058440F551F59F05F3F71F04795880F03
:1033600097FB991F61F09F3F79F08795089512169A
:1033700013061406551FF2CF4695F1DF08C0161646
:1033800017061806991FF1CF8695710561050894F7
:103390000895E894BB2766277727CB0197F908950E
:1033A000052E97FB1EF400940E94E71957FD07D0E5
:1033B0000E94391A07FC03D04EF40C94E71950957B
:1033C0004095309521953F4F4F4F5F4F0895909511
:1033D0008095709561957F4F8F4F9F4F08950E9404
:1033E0005B1AA59F900DB49F900DA49F800D911D19
:1033F00011240895B7FF0C94EF190E94EF19821B56
:10340000930B08952F923F924F925F926F927F920B
:103410008F929F92AF92BF92CF92DF92EF92FF92E4
:103420000F931F93CF93DF93CDB7DEB7CA1BDB0B90
:103430000FB6F894DEBF0FBECDBF09942A88398835
:1034400048885F846E847D848C849B84AA84B9843C
:10345000C884DF80EE80FD800C811B81AA81B98148
:10346000CE0FD11D0FB6F894DEBF0FBECDBFED015C
:103470000895A1E21A2EAA1BBB1BFD010DC0AA1FB5
:10348000BB1FEE1FFF1FA217B307E407F50720F0CD
:10349000A21BB30BE40BF50B661F771F881F991F48
:1034A0001A9469F760957095809590959B01AC0191
:1034B000BD01CF010895A29FB001B39FC001A39F9A
:1034C000700D811D1124911DB29F700D811D11245D
:1034D000911D0895991B79E004C0991F961708F073
:1034E000961B881F7A95C9F7809508950E945B1AEC
:1034F000332312F48A1B9B0B0C94801A0E945B1AD4
:10350000B7FF0895821B930B0895EE0FFF1F0590E0
:10351000F491E02D09945058BB27AA270E94A31AC2
:103520000C9496190E94881938F00E948F1920F087
:1035300039F49F3F19F426F40C9485190EF4E095A4
:10354000E7FB0C947F19E92F0E94A71958F3BA17CB
:10355000620773078407950720F079F4A6F50C94A9
:10356000C9190EF4E0950B2EBA2FA02D0B01B9014D
:1035700090010C01CA01A0011124FF27591B99F0E9
:10358000593F50F4503E68F11A16F040A22F232FF5
:10359000342F4427585FF3CF469537952795A79545
:1035A000F0405395C9F77EF41F16BA0B620B730BEC
:1035B000840BBAF09150A1F0FF0FBB1F661F771F5D
:1035C000881FC2F70EC0BA0F621F731F841F48F412
:1035D000879577956795B795F7959E3F08F0B0CF9B
:1035E0009395880F08F09927EE0F97958795089582
:1035F0000E940C1B0C9496190E948F1958F00E947F
:10360000881940F029F45F3F29F00C947F1951117B
:103610000C94CA190C9485190E94A71968F3992370
:10362000B1F3552391F3951B550BBB27AA276217BE
:103630007307840738F09F5F5F4F220F331F441FCB
:10364000AA1FA9F335D00E2E3AF0E0E832D09150FF
:103650005040E695001CCAF72BD0FE2F29D0660FEC
:10366000771F881FBB1F261737074807AB07B0E82F
:1036700009F0BB0B802DBF01FF2793585F4F3AF035
:103680009E3F510578F00C947F190C94CA195F3F46
:10369000E4F3983ED4F3869577956795B795F795BB
:1036A0009F5FC9F7880F911D9695879597F90895A3
:1036B000E1E0660F771F881FBB1F6217730784073F
:1036C000BA0720F0621B730B840BBA0BEE1F88F74E
:1036D000E09508950E94711B6894B1110C94CA1969
:1036E00008950E94AF1988F09F5798F0B92F992735
:1036F000B751B0F0E1F0660F771F881F991F1AF0DD
:10370000BA95C9F714C0B13091F00E94C919B1E05F
:1037100008950C94C919672F782F8827B85F39F05E
:10372000B93FCCF3869577956795B395D9F73EF475
:1037300090958095709561957F4F8F4F9F4F08951D
:103740000F931F93CF93DF938230910510F482E0A3
:1037500090E0E0916304F091640430E020E0B0E098
:10376000A0E0309799F42115310509F44AC0281BCF
:10377000390B24303105D8F58A819B81611571059B
:1037800089F1FB0193838283FE0111C04081518145
:103790000281138148175907E0F04817590799F437
:1037A000109761F012960C93129713961C93329611
:1037B000CF01DF91CF911F910F9108950093630482
:1037C00010936404F4CF2115310551F042175307CB
:1037D00038F0A901DB019A01BD01DF01F801C1CF79
:1037E000EF01F9CF9093640480936304CDCFFE0181
:1037F000E20FF31F8193919322503109398328837B
:10380000D7CF2091610430916204232B41F42091A1
:1038100005013091060130936204209361042091E8
:103820000301309104012115310541F42DB73EB754
:103830004091070150910801241B350BE091610470
:10384000F0916204E217F307A0F42E1B3F0B281738
:10385000390778F0AC014E5F5F4F2417350748F009
:103860004E0F5F1F509362044093610481939193C4
:103870009FCFF0E0E0E09CCFCF93DF930097E9F09B
:10388000FC01329713821282A0916304B091640408
:10389000ED0130E020E01097A1F420813181820F0A
:1038A000931F20916104309162042817390709F0B1
:1038B00061C0F0936204E0936104DF91CF910895B9
:1038C000EA01CE17DF07E8F54A815B819E014115C9
:1038D0005105B1F7E901FB83EA8349915991C40F7E
:1038E000D51FEC17FD0761F4808191810296840F4A
:1038F000951FE90199838883828193819B838A83C1
:10390000F0E0E0E012968D919C9113970097B9F545
:103910002D913C911197CD010296820F931F20911A
:103920006104309162042817390739F6309751F550
:103930001092640410926304B0936204A093610433
:10394000BCCFD383C28340815181840F951FC81798
:10395000D90761F44E5F5F4F88819981480F591FE5
:10396000518340838A819B81938382832115310512
:1039700009F0B0CFF0936404E09363049ECFFD019F
:10398000DC01C0CF13821282D7CFB0E0A0E0EBEC15
:10399000FCE10C94041A8C01009751F4CB010E94B5
:1039A000A01B8C01C801CDB7DEB7E0E10C94201A52
:1039B000FC01E60FF71F9C0122503109E217F307C3
:1039C00008F49DC0D901CD91DC911197C617D70796
:1039D00098F0C530D10530F3CE01049786179707CC
:1039E00008F3C61BD70B2297C193D1936D937C9399
:1039F000CF010E943C1CD6CF5B01AC1ABD0A4C0122
:103A00008C0E9D1EA0916304B0916404512C412C36
:103A1000F12CE12C109731F58091610490916204B2
:103A20008815990509F05CC04616570608F058C07D
:103A30008091030190910401009741F48DB79EB7E6
:103A40004091070150910801841B950BE817F90775
:103A500008F055C0F0936204E0936104F9017183AA
:103A60006083A0CF8D919C91119712966C901297C4
:103A700013967C901397A815B90559F56C0142E08F
:103A8000C40ED11CCA14DB0420F1AC014A195B0935
:103A9000DA011296159780F0628273825183408317
:103AA000D9016D937C93E114F10471F0D701139661
:103AB000FC93EE93129776CF22968C0F9D1FF901FF
:103AC00091838083F301EFCFF0936404E093630468
:103AD00069CF4816590608F42C017D01D3019ACF0D
:103AE000CB010E94A01B7C01009749F0AE01B801F8
:103AF0000E948A1DC8010E943C1C870153CF10E020
:103B000000E050CF9111089581568A5108F48052F7
:103B100085580895FB01DC0102C001900D924150CF
:103B20005040D8F70895FB01DC018D910190801978
:103B30000110D9F3990B0895FB01DC0101900D925E
:103B40000020E1F7089510E0C0EED0E004C0FE01CF
:103B50000E94851A2196C13ED107C9F7F894FFCF7C
:103B6000FFC80000006504800000004000140054FD
:103B700000000000000702DA012E07B001D301C0E7
:103B800001B10100000000A40700073107F107623E
:103B9000074007540700000000870800072E072D84
:103BA000070D0A004368617267696E672E2E2E004A
:103BB0005761746572696E67200077617465726918
:103BC0006E6720506C616E74004C6F772042617498
:103BD0007465727900506C65617365204368617229
:103BE00067652100506C616E74203100506C616E0D
:103BF0007420320020446F6E65210044657669634D
:103C000065206973206E6F742079657420706F77FA
:103C10006572656421205B44656C65676174655DF0
:103C200000486920564200534D4152542049525297
:103C300049474154494F4E002020202020535953DA
:103C400054454D202020202000426F6F7465642071
:103C50007375636365737366756C6C79004E696721
:103C60006874200044696D20202000436C656172F7
:103C7000200053756E6E7920004572726F722000BD
:103C8000533A2000486F74202020005761726D2045
:103C900020004D6964202020004C6F7720202000F8
:103CA000436F6C64202000543A2000486967682004
:103CB0002000426573742020004472792020200087
:103CC000483A2000563A20002520002520202000D8
:0C3CD00043200048005400530056000040
:00000001FF
